{
  "_format": "hh-sol-artifact-1",
  "contractName": "Domains",
  "sourceName": "contracts/Domains.sol",
  "abi": [
    {
      "inputs": [
        {
          "internalType": "string",
          "name": "_tld",
          "type": "string"
        }
      ],
      "stateMutability": "payable",
      "type": "constructor"
    },
    {
      "inputs": [],
      "name": "AlreadyRegistered",
      "type": "error"
    },
    {
      "inputs": [
        {
          "internalType": "string",
          "name": "name",
          "type": "string"
        }
      ],
      "name": "InvalidName",
      "type": "error"
    },
    {
      "inputs": [],
      "name": "Unauthorized",
      "type": "error"
    },
    {
      "anonymous": false,
      "inputs": [
        {
          "indexed": true,
          "internalType": "address",
          "name": "owner",
          "type": "address"
        },
        {
          "indexed": true,
          "internalType": "address",
          "name": "approved",
          "type": "address"
        },
        {
          "indexed": true,
          "internalType": "uint256",
          "name": "tokenId",
          "type": "uint256"
        }
      ],
      "name": "Approval",
      "type": "event"
    },
    {
      "anonymous": false,
      "inputs": [
        {
          "indexed": true,
          "internalType": "address",
          "name": "owner",
          "type": "address"
        },
        {
          "indexed": true,
          "internalType": "address",
          "name": "operator",
          "type": "address"
        },
        {
          "indexed": false,
          "internalType": "bool",
          "name": "approved",
          "type": "bool"
        }
      ],
      "name": "ApprovalForAll",
      "type": "event"
    },
    {
      "anonymous": false,
      "inputs": [
        {
          "indexed": true,
          "internalType": "address",
          "name": "from",
          "type": "address"
        },
        {
          "indexed": true,
          "internalType": "address",
          "name": "to",
          "type": "address"
        },
        {
          "indexed": true,
          "internalType": "uint256",
          "name": "tokenId",
          "type": "uint256"
        }
      ],
      "name": "Transfer",
      "type": "event"
    },
    {
      "inputs": [
        {
          "internalType": "address",
          "name": "to",
          "type": "address"
        },
        {
          "internalType": "uint256",
          "name": "tokenId",
          "type": "uint256"
        }
      ],
      "name": "approve",
      "outputs": [],
      "stateMutability": "nonpayable",
      "type": "function"
    },
    {
      "inputs": [
        {
          "internalType": "address",
          "name": "owner",
          "type": "address"
        }
      ],
      "name": "balanceOf",
      "outputs": [
        {
          "internalType": "uint256",
          "name": "",
          "type": "uint256"
        }
      ],
      "stateMutability": "view",
      "type": "function"
    },
    {
      "inputs": [
        {
          "internalType": "string",
          "name": "",
          "type": "string"
        }
      ],
      "name": "domains",
      "outputs": [
        {
          "internalType": "address",
          "name": "",
          "type": "address"
        }
      ],
      "stateMutability": "view",
      "type": "function"
    },
    {
      "inputs": [
        {
          "internalType": "string",
          "name": "name",
          "type": "string"
        }
      ],
      "name": "getAddress",
      "outputs": [
        {
          "internalType": "address",
          "name": "",
          "type": "address"
        }
      ],
      "stateMutability": "view",
      "type": "function"
    },
    {
      "inputs": [],
      "name": "getAllNames",
      "outputs": [
        {
          "internalType": "string[]",
          "name": "",
          "type": "string[]"
        }
      ],
      "stateMutability": "view",
      "type": "function"
    },
    {
      "inputs": [
        {
          "internalType": "uint256",
          "name": "tokenId",
          "type": "uint256"
        }
      ],
      "name": "getApproved",
      "outputs": [
        {
          "internalType": "address",
          "name": "",
          "type": "address"
        }
      ],
      "stateMutability": "view",
      "type": "function"
    },
    {
      "inputs": [
        {
          "internalType": "string",
          "name": "name",
          "type": "string"
        }
      ],
      "name": "getRecord",
      "outputs": [
        {
          "internalType": "string",
          "name": "",
          "type": "string"
        }
      ],
      "stateMutability": "view",
      "type": "function"
    },
    {
      "inputs": [
        {
          "internalType": "address",
          "name": "owner",
          "type": "address"
        },
        {
          "internalType": "address",
          "name": "operator",
          "type": "address"
        }
      ],
      "name": "isApprovedForAll",
      "outputs": [
        {
          "internalType": "bool",
          "name": "",
          "type": "bool"
        }
      ],
      "stateMutability": "view",
      "type": "function"
    },
    {
      "inputs": [],
      "name": "isOwner",
      "outputs": [
        {
          "internalType": "bool",
          "name": "",
          "type": "bool"
        }
      ],
      "stateMutability": "view",
      "type": "function"
    },
    {
      "inputs": [],
      "name": "name",
      "outputs": [
        {
          "internalType": "string",
          "name": "",
          "type": "string"
        }
      ],
      "stateMutability": "view",
      "type": "function"
    },
    {
      "inputs": [
        {
          "internalType": "uint256",
          "name": "",
          "type": "uint256"
        }
      ],
      "name": "names",
      "outputs": [
        {
          "internalType": "string",
          "name": "",
          "type": "string"
        }
      ],
      "stateMutability": "view",
      "type": "function"
    },
    {
      "inputs": [],
      "name": "owner",
      "outputs": [
        {
          "internalType": "address payable",
          "name": "",
          "type": "address"
        }
      ],
      "stateMutability": "view",
      "type": "function"
    },
    {
      "inputs": [
        {
          "internalType": "uint256",
          "name": "tokenId",
          "type": "uint256"
        }
      ],
      "name": "ownerOf",
      "outputs": [
        {
          "internalType": "address",
          "name": "",
          "type": "address"
        }
      ],
      "stateMutability": "view",
      "type": "function"
    },
    {
      "inputs": [
        {
          "internalType": "string",
          "name": "",
          "type": "string"
        }
      ],
      "name": "records",
      "outputs": [
        {
          "internalType": "string",
          "name": "",
          "type": "string"
        }
      ],
      "stateMutability": "view",
      "type": "function"
    },
    {
      "inputs": [
        {
          "internalType": "string",
          "name": "name",
          "type": "string"
        }
      ],
      "name": "register",
      "outputs": [],
      "stateMutability": "payable",
      "type": "function"
    },
    {
      "inputs": [
        {
          "internalType": "address",
          "name": "from",
          "type": "address"
        },
        {
          "internalType": "address",
          "name": "to",
          "type": "address"
        },
        {
          "internalType": "uint256",
          "name": "tokenId",
          "type": "uint256"
        }
      ],
      "name": "safeTransferFrom",
      "outputs": [],
      "stateMutability": "nonpayable",
      "type": "function"
    },
    {
      "inputs": [
        {
          "internalType": "address",
          "name": "from",
          "type": "address"
        },
        {
          "internalType": "address",
          "name": "to",
          "type": "address"
        },
        {
          "internalType": "uint256",
          "name": "tokenId",
          "type": "uint256"
        },
        {
          "internalType": "bytes",
          "name": "_data",
          "type": "bytes"
        }
      ],
      "name": "safeTransferFrom",
      "outputs": [],
      "stateMutability": "nonpayable",
      "type": "function"
    },
    {
      "inputs": [
        {
          "internalType": "address",
          "name": "operator",
          "type": "address"
        },
        {
          "internalType": "bool",
          "name": "approved",
          "type": "bool"
        }
      ],
      "name": "setApprovalForAll",
      "outputs": [],
      "stateMutability": "nonpayable",
      "type": "function"
    },
    {
      "inputs": [
        {
          "internalType": "string",
          "name": "name",
          "type": "string"
        },
        {
          "internalType": "string",
          "name": "record",
          "type": "string"
        }
      ],
      "name": "setRecord",
      "outputs": [],
      "stateMutability": "nonpayable",
      "type": "function"
    },
    {
      "inputs": [
        {
          "internalType": "bytes4",
          "name": "interfaceId",
          "type": "bytes4"
        }
      ],
      "name": "supportsInterface",
      "outputs": [
        {
          "internalType": "bool",
          "name": "",
          "type": "bool"
        }
      ],
      "stateMutability": "view",
      "type": "function"
    },
    {
      "inputs": [],
      "name": "symbol",
      "outputs": [
        {
          "internalType": "string",
          "name": "",
          "type": "string"
        }
      ],
      "stateMutability": "view",
      "type": "function"
    },
    {
      "inputs": [],
      "name": "tld",
      "outputs": [
        {
          "internalType": "string",
          "name": "",
          "type": "string"
        }
      ],
      "stateMutability": "view",
      "type": "function"
    },
    {
      "inputs": [
        {
          "internalType": "uint256",
          "name": "tokenId",
          "type": "uint256"
        }
      ],
      "name": "tokenURI",
      "outputs": [
        {
          "internalType": "string",
          "name": "",
          "type": "string"
        }
      ],
      "stateMutability": "view",
      "type": "function"
    },
    {
      "inputs": [
        {
          "internalType": "address",
          "name": "from",
          "type": "address"
        },
        {
          "internalType": "address",
          "name": "to",
          "type": "address"
        },
        {
          "internalType": "uint256",
          "name": "tokenId",
          "type": "uint256"
        }
      ],
      "name": "transferFrom",
      "outputs": [],
      "stateMutability": "nonpayable",
      "type": "function"
    },
    {
      "inputs": [
        {
          "internalType": "string",
          "name": "name",
          "type": "string"
        }
      ],
      "name": "valid",
      "outputs": [
        {
          "internalType": "bool",
          "name": "",
          "type": "bool"
        }
      ],
      "stateMutability": "pure",
      "type": "function"
    },
    {
      "inputs": [],
      "name": "withdraw",
      "outputs": [],
      "stateMutability": "payable",
      "type": "function"
    }
  ],
  "bytecode": "0x6080604052604051806108a0016040528061086b8152602001620052cd61086b91396009908051906020019062000038929190620002c8565b506040518060400160405280600d81526020017f3c2f746578743e3c2f7376673e00000000000000000000000000000000000000815250600a908051906020019062000086929190620002c8565b5060405162005b3838038062005b388339818101604052810190620000ac919062000515565b6040518060400160405280601481526020017f4d617966616972204e616d6520536572766963650000000000000000000000008152506040518060400160405280600481526020017f4d59465200000000000000000000000000000000000000000000000000000000815250816000908051906020019062000130929190620002c8565b50806001908051906020019062000149929190620002c8565b50505033600e60006101000a81548173ffffffffffffffffffffffffffffffffffffffff021916908373ffffffffffffffffffffffffffffffffffffffff1602179055508060089080519060200190620001a5929190620002c8565b50620001f26040518060400160405280601881526020017f2573206e616d652073657276696365206465706c6f796564000000000000000081525082620001f960201b62001b751760201c565b5062000663565b6200029b828260405160240162000212929190620005c3565b6040516020818303038152906040527f4b5c4277000000000000000000000000000000000000000000000000000000007bffffffffffffffffffffffffffffffffffffffffffffffffffffffff19166020820180517bffffffffffffffffffffffffffffffffffffffffffffffffffffffff83818316178352505050506200029f60201b60201c565b5050565b60008151905060006a636f6e736f6c652e6c6f679050602083016000808483855afa5050505050565b828054620002d6906200062d565b90600052602060002090601f016020900481019282620002fa576000855562000346565b82601f106200031557805160ff191683800117855562000346565b8280016001018555821562000346579182015b828111156200034557825182559160200191906001019062000328565b5b50905062000355919062000359565b5090565b5b80821115620003745760008160009055506001016200035a565b5090565b6000604051905090565b600080fd5b600080fd5b600080fd5b600080fd5b6000601f19601f8301169050919050565b7f4e487b7100000000000000000000000000000000000000000000000000000000600052604160045260246000fd5b620003e18262000396565b810181811067ffffffffffffffff82111715620004035762000402620003a7565b5b80604052505050565b60006200041862000378565b9050620004268282620003d6565b919050565b600067ffffffffffffffff821115620004495762000448620003a7565b5b620004548262000396565b9050602081019050919050565b60005b838110156200048157808201518184015260208101905062000464565b8381111562000491576000848401525b50505050565b6000620004ae620004a8846200042b565b6200040c565b905082815260208101848484011115620004cd57620004cc62000391565b5b620004da84828562000461565b509392505050565b600082601f830112620004fa57620004f96200038c565b5b81516200050c84826020860162000497565b91505092915050565b6000602082840312156200052e576200052d62000382565b5b600082015167ffffffffffffffff8111156200054f576200054e62000387565b5b6200055d84828501620004e2565b91505092915050565b600081519050919050565b600082825260208201905092915050565b60006200058f8262000566565b6200059b818562000571565b9350620005ad81856020860162000461565b620005b88162000396565b840191505092915050565b60006040820190508181036000830152620005df818562000582565b90508181036020830152620005f5818462000582565b90509392505050565b7f4e487b7100000000000000000000000000000000000000000000000000000000600052602260045260246000fd5b600060028204905060018216806200064657607f821691505b602082108114156200065d576200065c620005fe565b5b50919050565b614c5a80620006736000396000f3fe6080604052600436106101815760003560e01c806370a08231116100d1578063b88d4fde1161008a578063c87b56dd11610064578063c87b56dd146105bf578063e985e9c5146105fc578063f2c298be14610639578063fb825e5f1461065557610181565b8063b88d4fde14610530578063bf40fac114610559578063c1880a981461059657610181565b806370a082311461040c5780638da5cb5b146104495780638f32d59b1461047457806395d89b411461049f5780639791c097146104ca578063a22cb4651461050757610181565b8063264492351161013e57806342842e0e1161011857806342842e0e1461032c5780634622ab0314610355578063541e771d146103925780636352211e146103cf57610181565b806326449235146102ba5780632d551432146102f75780633ccfd60b1461032257610181565b806301ffc9a71461018657806306fdde03146101c3578063081812fc146101ee578063095ea7b31461022b57806311dd88451461025457806323b872dd14610291575b600080fd5b34801561019257600080fd5b506101ad60048036038101906101a8919061305a565b610680565b6040516101ba91906130a2565b60405180910390f35b3480156101cf57600080fd5b506101d8610762565b6040516101e59190613156565b60405180910390f35b3480156101fa57600080fd5b50610215600480360381019061021091906131ae565b6107f4565b604051610222919061321c565b60405180910390f35b34801561023757600080fd5b50610252600480360381019061024d9190613263565b610879565b005b34801561026057600080fd5b5061027b60048036038101906102769190613308565b610991565b6040516102889190613156565b60405180910390f35b34801561029d57600080fd5b506102b860048036038101906102b39190613355565b610a44565b005b3480156102c657600080fd5b506102e160048036038101906102dc91906134d8565b610aa4565b6040516102ee919061321c565b60405180910390f35b34801561030357600080fd5b5061030c610aed565b6040516103199190613156565b60405180910390f35b61032a610b7b565b005b34801561033857600080fd5b50610353600480360381019061034e9190613355565b610c41565b005b34801561036157600080fd5b5061037c600480360381019061037791906131ae565b610c61565b6040516103899190613156565b60405180910390f35b34801561039e57600080fd5b506103b960048036038101906103b491906134d8565b610d01565b6040516103c69190613156565b60405180910390f35b3480156103db57600080fd5b506103f660048036038101906103f191906131ae565b610db7565b604051610403919061321c565b60405180910390f35b34801561041857600080fd5b50610433600480360381019061042e9190613521565b610e69565b604051610440919061355d565b60405180910390f35b34801561045557600080fd5b5061045e610f21565b60405161046b9190613599565b60405180910390f35b34801561048057600080fd5b50610489610f47565b60405161049691906130a2565b60405180910390f35b3480156104ab57600080fd5b506104b4610f9f565b6040516104c19190613156565b60405180910390f35b3480156104d657600080fd5b506104f160048036038101906104ec9190613308565b611031565b6040516104fe91906130a2565b60405180910390f35b34801561051357600080fd5b5061052e600480360381019061052991906135e0565b6110e5565b005b34801561053c57600080fd5b50610557600480360381019061055291906136c1565b6110fb565b005b34801561056557600080fd5b50610580600480360381019061057b9190613308565b61115d565b60405161058d919061321c565b60405180910390f35b3480156105a257600080fd5b506105bd60048036038101906105b89190613744565b6111a8565b005b3480156105cb57600080fd5b506105e660048036038101906105e191906131ae565b6112fb565b6040516105f39190613156565b60405180910390f35b34801561060857600080fd5b50610623600480360381019061061e91906137c5565b61144d565b60405161063091906130a2565b60405180910390f35b610653600480360381019061064e9190613308565b6114e1565b005b34801561066157600080fd5b5061066a611997565b6040516106779190613911565b60405180910390f35b60007f80ac58cd000000000000000000000000000000000000000000000000000000007bffffffffffffffffffffffffffffffffffffffffffffffffffffffff1916827bffffffffffffffffffffffffffffffffffffffffffffffffffffffff1916148061074b57507f5b5e139f000000000000000000000000000000000000000000000000000000007bffffffffffffffffffffffffffffffffffffffffffffffffffffffff1916827bffffffffffffffffffffffffffffffffffffffffffffffffffffffff1916145b8061075b575061075a82611c11565b5b9050919050565b60606000805461077190613962565b80601f016020809104026020016040519081016040528092919081815260200182805461079d90613962565b80156107ea5780601f106107bf576101008083540402835291602001916107ea565b820191906000526020600020905b8154815290600101906020018083116107cd57829003601f168201915b5050505050905090565b60006107ff82611c7b565b61083e576040517f08c379a000000000000000000000000000000000000000000000000000000000815260040161083590613a06565b60405180910390fd5b6004600083815260200190815260200160002060009054906101000a900473ffffffffffffffffffffffffffffffffffffffff169050919050565b600061088482610db7565b90508073ffffffffffffffffffffffffffffffffffffffff168373ffffffffffffffffffffffffffffffffffffffff1614156108f5576040517f08c379a00000000000000000000000000000000000000000000000000000000081526004016108ec90613a98565b60405180910390fd5b8073ffffffffffffffffffffffffffffffffffffffff16610914611ce7565b73ffffffffffffffffffffffffffffffffffffffff16148061094357506109428161093d611ce7565b61144d565b5b610982576040517f08c379a000000000000000000000000000000000000000000000000000000000815260040161097990613b2a565b60405180910390fd5b61098c8383611cef565b505050565b6060600c83836040516109a5929190613b7a565b908152602001604051809103902080546109be90613962565b80601f01602080910402602001604051908101604052809291908181526020018280546109ea90613962565b8015610a375780601f10610a0c57610100808354040283529160200191610a37565b820191906000526020600020905b815481529060010190602001808311610a1a57829003601f168201915b5050505050905092915050565b610a55610a4f611ce7565b82611da8565b610a94576040517f08c379a0000000000000000000000000000000000000000000000000000000008152600401610a8b90613c05565b60405180910390fd5b610a9f838383611e86565b505050565b600b818051602081018201805184825260208301602085012081835280955050505050506000915054906101000a900473ffffffffffffffffffffffffffffffffffffffff1681565b60088054610afa90613962565b80601f0160208091040260200160405190810160405280929190818152602001828054610b2690613962565b8015610b735780601f10610b4857610100808354040283529160200191610b73565b820191906000526020600020905b815481529060010190602001808311610b5657829003601f168201915b505050505081565b610b83610f47565b610b8c57600080fd5b600047905060003373ffffffffffffffffffffffffffffffffffffffff1682604051610bb790613c56565b60006040518083038185875af1925050503d8060008114610bf4576040519150601f19603f3d011682016040523d82523d6000602084013e610bf9565b606091505b5050905080610c3d576040517f08c379a0000000000000000000000000000000000000000000000000000000008152600401610c3490613cb7565b60405180910390fd5b5050565b610c5c838383604051806020016040528060008152506110fb565b505050565b600d6020528060005260406000206000915090508054610c8090613962565b80601f0160208091040260200160405190810160405280929190818152602001828054610cac90613962565b8015610cf95780601f10610cce57610100808354040283529160200191610cf9565b820191906000526020600020905b815481529060010190602001808311610cdc57829003601f168201915b505050505081565b600c818051602081018201805184825260208301602085012081835280955050505050506000915090508054610d3690613962565b80601f0160208091040260200160405190810160405280929190818152602001828054610d6290613962565b8015610daf5780601f10610d8457610100808354040283529160200191610daf565b820191906000526020600020905b815481529060010190602001808311610d9257829003601f168201915b505050505081565b6000806002600084815260200190815260200160002060009054906101000a900473ffffffffffffffffffffffffffffffffffffffff169050600073ffffffffffffffffffffffffffffffffffffffff168173ffffffffffffffffffffffffffffffffffffffff161415610e60576040517f08c379a0000000000000000000000000000000000000000000000000000000008152600401610e5790613d49565b60405180910390fd5b80915050919050565b60008073ffffffffffffffffffffffffffffffffffffffff168273ffffffffffffffffffffffffffffffffffffffff161415610eda576040517f08c379a0000000000000000000000000000000000000000000000000000000008152600401610ed190613ddb565b60405180910390fd5b600360008373ffffffffffffffffffffffffffffffffffffffff1673ffffffffffffffffffffffffffffffffffffffff168152602001908152602001600020549050919050565b600e60009054906101000a900473ffffffffffffffffffffffffffffffffffffffff1681565b6000600e60009054906101000a900473ffffffffffffffffffffffffffffffffffffffff1673ffffffffffffffffffffffffffffffffffffffff163373ffffffffffffffffffffffffffffffffffffffff1614905090565b606060018054610fae90613962565b80601f0160208091040260200160405190810160405280929190818152602001828054610fda90613962565b80156110275780601f10610ffc57610100808354040283529160200191611027565b820191906000526020600020905b81548152906001019060200180831161100a57829003601f168201915b5050505050905090565b6000600361108284848080601f016020809104026020016040519081016040528093929190818152602001838380828437600081840152601f19601f820116905080830192505050505050506120ed565b101580156110dd5750600f6110da84848080601f016020809104026020016040519081016040528093929190818152602001838380828437600081840152601f19601f820116905080830192505050505050506120ed565b11155b905092915050565b6110f76110f0611ce7565b83836122a2565b5050565b61110c611106611ce7565b83611da8565b61114b576040517f08c379a000000000000000000000000000000000000000000000000000000000815260040161114290613c05565b60405180910390fd5b6111578484848461240f565b50505050565b6000600b8383604051611171929190613b7a565b908152602001604051809103902060009054906101000a900473ffffffffffffffffffffffffffffffffffffffff16905092915050565b3373ffffffffffffffffffffffffffffffffffffffff16600b85856040516111d1929190613b7a565b908152602001604051809103902060009054906101000a900473ffffffffffffffffffffffffffffffffffffffff1673ffffffffffffffffffffffffffffffffffffffff161461122057600080fd5b600b8484604051611232929190613b7a565b908152602001604051809103902060009054906101000a900473ffffffffffffffffffffffffffffffffffffffff1673ffffffffffffffffffffffffffffffffffffffff163373ffffffffffffffffffffffffffffffffffffffff16146112c5576040517f82b4290000000000000000000000000000000000000000000000000000000000815260040160405180910390fd5b8181600c86866040516112d9929190613b7a565b908152602001604051809103902091906112f4929190612ec5565b5050505050565b606061130682611c7b565b611345576040517f08c379a000000000000000000000000000000000000000000000000000000000815260040161133c90613e6d565b60405180910390fd5b600060066000848152602001908152602001600020805461136590613962565b80601f016020809104026020016040519081016040528092919081815260200182805461139190613962565b80156113de5780601f106113b3576101008083540402835291602001916113de565b820191906000526020600020905b8154815290600101906020018083116113c157829003601f168201915b5050505050905060006113ef61246b565b9050600081511415611405578192505050611448565b60008251111561143a578082604051602001611422929190613ebe565b60405160208183030381529060405292505050611448565b61144384612482565b925050505b919050565b6000600560008473ffffffffffffffffffffffffffffffffffffffff1673ffffffffffffffffffffffffffffffffffffffff16815260200190815260200160002060008373ffffffffffffffffffffffffffffffffffffffff1673ffffffffffffffffffffffffffffffffffffffff16815260200190815260200160002060009054906101000a900460ff16905092915050565b6114e9610f47565b6114f257600080fd5b600073ffffffffffffffffffffffffffffffffffffffff16600b838360405161151c929190613b7a565b908152602001604051809103902060009054906101000a900473ffffffffffffffffffffffffffffffffffffffff1673ffffffffffffffffffffffffffffffffffffffff1614611598576040517f3a81d6fc00000000000000000000000000000000000000000000000000000000815260040160405180910390fd5b6115a28282611031565b6115e55781816040517f7f19f48d0000000000000000000000000000000000000000000000000000000081526004016115dc929190613f0f565b60405180910390fd5b600073ffffffffffffffffffffffffffffffffffffffff16600b838360405161160f929190613b7a565b908152602001604051809103902060009054906101000a900473ffffffffffffffffffffffffffffffffffffffff1673ffffffffffffffffffffffffffffffffffffffff161461165e57600080fd5b60008282600860405160200161167693929190614013565b60405160208183030381529060405290506000600982600a6040516020016116a093929190614044565b604051602081830303815290604052905060006116bd6007612529565b9050600061170e86868080601f016020809104026020016040519081016040528093929190818152602001838380828437600081840152601f19601f820116905080830192505050505050506120ed565b9050600061171b82612537565b905061180f604051806060016040528060318152602001614b7b6031913988888080601f016020809104026020016040519081016040528093929190818152602001838380828437600081840152601f19601f820116905080830192505050505050506008805461178b90613962565b80601f01602080910402602001604051908101604052809291908181526020018280546117b790613962565b80156118045780601f106117d957610100808354040283529160200191611804565b820191906000526020600020905b8154815290600101906020018083116117e757829003601f168201915b505050505086612698565b60006118458661181e8761273a565b84604051602001611831939291906141f1565b60405160208183030381529060405261273a565b905060008160405160200161185a919061429a565b604051602081830303815290604052905061188c604051806060016040528060398152602001614b42603991396128d2565b6118cb6040518060400160405280600e81526020017f46696e616c20746f6b656e55524900000000000000000000000000000000000081525082611b75565b6118ec604051806060016040528060398152602001614bac603991396128d2565b6118f6338661296b565b6119008582612989565b33600b8a8a604051611913929190613b7a565b908152602001604051809103902060006101000a81548173ffffffffffffffffffffffffffffffffffffffff021916908373ffffffffffffffffffffffffffffffffffffffff1602179055508888600d60008881526020019081526020016000209190611981929190612ec5565b5061198c60076129fd565b505050505050505050565b60606119d76040518060400160405280601f81526020017f47657474696e6720616c6c206e616d65732066726f6d20636f6e7472616374008152506128d2565b60006119e36007612529565b67ffffffffffffffff8111156119fc576119fb6133ad565b5b604051908082528060200260200182016040528015611a2f57816020015b6060815260200190600190039081611a1a5790505b50905060005b611a3f6007612529565b811015611b6d57600d60008281526020019081526020016000208054611a6490613962565b80601f0160208091040260200160405190810160405280929190818152602001828054611a9090613962565b8015611add5780601f10611ab257610100808354040283529160200191611add565b820191906000526020600020905b815481529060010190602001808311611ac057829003601f168201915b5050505050828281518110611af557611af46142bc565b5b6020026020010181905250611b5a6040518060400160405280601781526020017f4e616d6520666f7220746f6b656e20256420697320257300000000000000000081525082848481518110611b4d57611b4c6142bc565b5b6020026020010151612a13565b8080611b659061431a565b915050611a35565b508091505090565b611c0d8282604051602401611b8b929190614363565b6040516020818303038152906040527f4b5c4277000000000000000000000000000000000000000000000000000000007bffffffffffffffffffffffffffffffffffffffffffffffffffffffff19166020820180517bffffffffffffffffffffffffffffffffffffffffffffffffffffffff8381831617835250505050612ab2565b5050565b60007f01ffc9a7000000000000000000000000000000000000000000000000000000007bffffffffffffffffffffffffffffffffffffffffffffffffffffffff1916827bffffffffffffffffffffffffffffffffffffffffffffffffffffffff1916149050919050565b60008073ffffffffffffffffffffffffffffffffffffffff166002600084815260200190815260200160002060009054906101000a900473ffffffffffffffffffffffffffffffffffffffff1673ffffffffffffffffffffffffffffffffffffffff1614159050919050565b600033905090565b816004600083815260200190815260200160002060006101000a81548173ffffffffffffffffffffffffffffffffffffffff021916908373ffffffffffffffffffffffffffffffffffffffff160217905550808273ffffffffffffffffffffffffffffffffffffffff16611d6283610db7565b73ffffffffffffffffffffffffffffffffffffffff167f8c5be1e5ebec7d5bd14f71427d1e84f3dd0314c0f7b2291e5b200ac8c7c3b92560405160405180910390a45050565b6000611db382611c7b565b611df2576040517f08c379a0000000000000000000000000000000000000000000000000000000008152600401611de99061440c565b60405180910390fd5b6000611dfd83610db7565b90508073ffffffffffffffffffffffffffffffffffffffff168473ffffffffffffffffffffffffffffffffffffffff161480611e3f5750611e3e818561144d565b5b80611e7d57508373ffffffffffffffffffffffffffffffffffffffff16611e65846107f4565b73ffffffffffffffffffffffffffffffffffffffff16145b91505092915050565b8273ffffffffffffffffffffffffffffffffffffffff16611ea682610db7565b73ffffffffffffffffffffffffffffffffffffffff1614611efc576040517f08c379a0000000000000000000000000000000000000000000000000000000008152600401611ef39061449e565b60405180910390fd5b600073ffffffffffffffffffffffffffffffffffffffff168273ffffffffffffffffffffffffffffffffffffffff161415611f6c576040517f08c379a0000000000000000000000000000000000000000000000000000000008152600401611f6390614530565b60405180910390fd5b611f77838383612adb565b611f82600082611cef565b6001600360008573ffffffffffffffffffffffffffffffffffffffff1673ffffffffffffffffffffffffffffffffffffffff1681526020019081526020016000206000828254611fd29190614550565b925050819055506001600360008473ffffffffffffffffffffffffffffffffffffffff1673ffffffffffffffffffffffffffffffffffffffff16815260200190815260200160002060008282546120299190614584565b92505081905550816002600083815260200190815260200160002060006101000a81548173ffffffffffffffffffffffffffffffffffffffff021916908373ffffffffffffffffffffffffffffffffffffffff160217905550808273ffffffffffffffffffffffffffffffffffffffff168473ffffffffffffffffffffffffffffffffffffffff167fddf252ad1be2c89b69c2b068fc378daa952ba7f163c4a11628f55a4df523b3ef60405160405180910390a46120e8838383612ae0565b505050565b60008060008084519050600092505b80821015612297576000858381518110612119576121186142bc565b5b602001015160f81c60f81b9050608060f81b817effffffffffffffffffffffffffffffffffffffffffffffffffffffffffffff19161015612168576001836121619190614584565b9250612283565b60e060f81b817effffffffffffffffffffffffffffffffffffffffffffffffffffffffffffff191610156121aa576002836121a39190614584565b9250612282565b60f060f81b817effffffffffffffffffffffffffffffffffffffffffffffffffffffffffffff191610156121ec576003836121e59190614584565b9250612281565b60f8801b817effffffffffffffffffffffffffffffffffffffffffffffffffffffffffffff1916101561222d576004836122269190614584565b9250612280565b60fc60f81b817effffffffffffffffffffffffffffffffffffffffffffffffffffffffffffff1916101561226f576005836122689190614584565b925061227f565b60068361227c9190614584565b92505b5b5b5b5b50828061228f9061431a565b9350506120fc565b829350505050919050565b8173ffffffffffffffffffffffffffffffffffffffff168373ffffffffffffffffffffffffffffffffffffffff161415612311576040517f08c379a000000000000000000000000000000000000000000000000000000000815260040161230890614626565b60405180910390fd5b80600560008573ffffffffffffffffffffffffffffffffffffffff1673ffffffffffffffffffffffffffffffffffffffff16815260200190815260200160002060008473ffffffffffffffffffffffffffffffffffffffff1673ffffffffffffffffffffffffffffffffffffffff16815260200190815260200160002060006101000a81548160ff0219169083151502179055508173ffffffffffffffffffffffffffffffffffffffff168373ffffffffffffffffffffffffffffffffffffffff167f17307eab39ab6107e8899845ad3d59bd9653f200f220920489ca2b5937696c318360405161240291906130a2565b60405180910390a3505050565b61241a848484611e86565b61242684848484612ae5565b612465576040517f08c379a000000000000000000000000000000000000000000000000000000000815260040161245c906146b8565b60405180910390fd5b50505050565b606060405180602001604052806000815250905090565b606061248d82611c7b565b6124cc576040517f08c379a00000000000000000000000000000000000000000000000000000000081526004016124c39061474a565b60405180910390fd5b60006124d661246b565b905060008151116124f65760405180602001604052806000815250612521565b8061250084612537565b604051602001612511929190613ebe565b6040516020818303038152906040525b915050919050565b600081600001549050919050565b6060600082141561257f576040518060400160405280600181526020017f30000000000000000000000000000000000000000000000000000000000000008152509050612693565b600082905060005b600082146125b157808061259a9061431a565b915050600a826125aa9190614799565b9150612587565b60008167ffffffffffffffff8111156125cd576125cc6133ad565b5b6040519080825280601f01601f1916602001820160405280156125ff5781602001600182028036833780820191505090505b5090505b6000851461268c576001826126189190614550565b9150600a8561262791906147ca565b60306126339190614584565b60f81b818381518110612649576126486142bc565b5b60200101907effffffffffffffffffffffffffffffffffffffffffffffffffffffffffffff1916908160001a905350600a856126859190614799565b9450612603565b8093505050505b919050565b612734848484846040516024016126b294939291906147fb565b6040516020818303038152906040527f9fd009f5000000000000000000000000000000000000000000000000000000007bffffffffffffffffffffffffffffffffffffffffffffffffffffffff19166020820180517bffffffffffffffffffffffffffffffffffffffffffffffffffffffff8381831617835250505050612ab2565b50505050565b6060600082519050600081141561276357604051806020016040528060008152509150506128cd565b600060036002836127749190614584565b61277e9190614799565b600461278a9190614855565b9050600060208261279b9190614584565b67ffffffffffffffff8111156127b4576127b36133ad565b5b6040519080825280601f01601f1916602001820160405280156127e65781602001600182028036833780820191505090505b5090506000604051806060016040528060408152602001614be5604091399050600181016020830160005b8681101561288a5760038101905062ffffff818a015116603f8160121c168401518060081b905060ff603f83600c1c1686015116810190508060081b905060ff603f8360061c1686015116810190508060081b905060ff603f831686015116810190508060e01b90508084526004840193505050612811565b5060038606600181146128a457600281146128b4576128bf565b613d3d60f01b60028303526128bf565b603d60f81b60018303525b508484525050819450505050505b919050565b612968816040516024016128e69190613156565b6040516020818303038152906040527f41304fac000000000000000000000000000000000000000000000000000000007bffffffffffffffffffffffffffffffffffffffffffffffffffffffff19166020820180517bffffffffffffffffffffffffffffffffffffffffffffffffffffffff8381831617835250505050612ab2565b50565b612985828260405180602001604052806000815250612c6d565b5050565b61299282611c7b565b6129d1576040517f08c379a00000000000000000000000000000000000000000000000000000000081526004016129c890614921565b60405180910390fd5b806006600084815260200190815260200160002090805190602001906129f8929190612f4b565b505050565b6001816000016000828254019250508190555050565b612aad838383604051602401612a2b93929190614941565b6040516020818303038152906040527fa3f5c739000000000000000000000000000000000000000000000000000000007bffffffffffffffffffffffffffffffffffffffffffffffffffffffff19166020820180517bffffffffffffffffffffffffffffffffffffffffffffffffffffffff8381831617835250505050612ab2565b505050565b60008151905060006a636f6e736f6c652e6c6f679050602083016000808483855afa5050505050565b505050565b505050565b6000612b068473ffffffffffffffffffffffffffffffffffffffff16612cc8565b15612c60578373ffffffffffffffffffffffffffffffffffffffff1663150b7a02612b2f611ce7565b8786866040518563ffffffff1660e01b8152600401612b5194939291906149db565b6020604051808303816000875af1925050508015612b8d57506040513d601f19601f82011682018060405250810190612b8a9190614a3c565b60015b612c10573d8060008114612bbd576040519150601f19603f3d011682016040523d82523d6000602084013e612bc2565b606091505b50600081511415612c08576040517f08c379a0000000000000000000000000000000000000000000000000000000008152600401612bff906146b8565b60405180910390fd5b805181602001fd5b63150b7a0260e01b7bffffffffffffffffffffffffffffffffffffffffffffffffffffffff1916817bffffffffffffffffffffffffffffffffffffffffffffffffffffffff191614915050612c65565b600190505b949350505050565b612c778383612ceb565b612c846000848484612ae5565b612cc3576040517f08c379a0000000000000000000000000000000000000000000000000000000008152600401612cba906146b8565b60405180910390fd5b505050565b6000808273ffffffffffffffffffffffffffffffffffffffff163b119050919050565b600073ffffffffffffffffffffffffffffffffffffffff168273ffffffffffffffffffffffffffffffffffffffff161415612d5b576040517f08c379a0000000000000000000000000000000000000000000000000000000008152600401612d5290614ab5565b60405180910390fd5b612d6481611c7b565b15612da4576040517f08c379a0000000000000000000000000000000000000000000000000000000008152600401612d9b90614b21565b60405180910390fd5b612db060008383612adb565b6001600360008473ffffffffffffffffffffffffffffffffffffffff1673ffffffffffffffffffffffffffffffffffffffff1681526020019081526020016000206000828254612e009190614584565b92505081905550816002600083815260200190815260200160002060006101000a81548173ffffffffffffffffffffffffffffffffffffffff021916908373ffffffffffffffffffffffffffffffffffffffff160217905550808273ffffffffffffffffffffffffffffffffffffffff16600073ffffffffffffffffffffffffffffffffffffffff167fddf252ad1be2c89b69c2b068fc378daa952ba7f163c4a11628f55a4df523b3ef60405160405180910390a4612ec160008383612ae0565b5050565b828054612ed190613962565b90600052602060002090601f016020900481019282612ef35760008555612f3a565b82601f10612f0c57803560ff1916838001178555612f3a565b82800160010185558215612f3a579182015b82811115612f39578235825591602001919060010190612f1e565b5b509050612f479190612fd1565b5090565b828054612f5790613962565b90600052602060002090601f016020900481019282612f795760008555612fc0565b82601f10612f9257805160ff1916838001178555612fc0565b82800160010185558215612fc0579182015b82811115612fbf578251825591602001919060010190612fa4565b5b509050612fcd9190612fd1565b5090565b5b80821115612fea576000816000905550600101612fd2565b5090565b6000604051905090565b600080fd5b600080fd5b60007fffffffff0000000000000000000000000000000000000000000000000000000082169050919050565b61303781613002565b811461304257600080fd5b50565b6000813590506130548161302e565b92915050565b6000602082840312156130705761306f612ff8565b5b600061307e84828501613045565b91505092915050565b60008115159050919050565b61309c81613087565b82525050565b60006020820190506130b76000830184613093565b92915050565b600081519050919050565b600082825260208201905092915050565b60005b838110156130f75780820151818401526020810190506130dc565b83811115613106576000848401525b50505050565b6000601f19601f8301169050919050565b6000613128826130bd565b61313281856130c8565b93506131428185602086016130d9565b61314b8161310c565b840191505092915050565b60006020820190508181036000830152613170818461311d565b905092915050565b6000819050919050565b61318b81613178565b811461319657600080fd5b50565b6000813590506131a881613182565b92915050565b6000602082840312156131c4576131c3612ff8565b5b60006131d284828501613199565b91505092915050565b600073ffffffffffffffffffffffffffffffffffffffff82169050919050565b6000613206826131db565b9050919050565b613216816131fb565b82525050565b6000602082019050613231600083018461320d565b92915050565b613240816131fb565b811461324b57600080fd5b50565b60008135905061325d81613237565b92915050565b6000806040838503121561327a57613279612ff8565b5b60006132888582860161324e565b925050602061329985828601613199565b9150509250929050565b600080fd5b600080fd5b600080fd5b60008083601f8401126132c8576132c76132a3565b5b8235905067ffffffffffffffff8111156132e5576132e46132a8565b5b602083019150836001820283011115613301576133006132ad565b5b9250929050565b6000806020838503121561331f5761331e612ff8565b5b600083013567ffffffffffffffff81111561333d5761333c612ffd565b5b613349858286016132b2565b92509250509250929050565b60008060006060848603121561336e5761336d612ff8565b5b600061337c8682870161324e565b935050602061338d8682870161324e565b925050604061339e86828701613199565b9150509250925092565b600080fd5b7f4e487b7100000000000000000000000000000000000000000000000000000000600052604160045260246000fd5b6133e58261310c565b810181811067ffffffffffffffff82111715613404576134036133ad565b5b80604052505050565b6000613417612fee565b905061342382826133dc565b919050565b600067ffffffffffffffff821115613443576134426133ad565b5b61344c8261310c565b9050602081019050919050565b82818337600083830152505050565b600061347b61347684613428565b61340d565b905082815260208101848484011115613497576134966133a8565b5b6134a2848285613459565b509392505050565b600082601f8301126134bf576134be6132a3565b5b81356134cf848260208601613468565b91505092915050565b6000602082840312156134ee576134ed612ff8565b5b600082013567ffffffffffffffff81111561350c5761350b612ffd565b5b613518848285016134aa565b91505092915050565b60006020828403121561353757613536612ff8565b5b60006135458482850161324e565b91505092915050565b61355781613178565b82525050565b6000602082019050613572600083018461354e565b92915050565b6000613583826131db565b9050919050565b61359381613578565b82525050565b60006020820190506135ae600083018461358a565b92915050565b6135bd81613087565b81146135c857600080fd5b50565b6000813590506135da816135b4565b92915050565b600080604083850312156135f7576135f6612ff8565b5b60006136058582860161324e565b9250506020613616858286016135cb565b9150509250929050565b600067ffffffffffffffff82111561363b5761363a6133ad565b5b6136448261310c565b9050602081019050919050565b600061366461365f84613620565b61340d565b9050828152602081018484840111156136805761367f6133a8565b5b61368b848285613459565b509392505050565b600082601f8301126136a8576136a76132a3565b5b81356136b8848260208601613651565b91505092915050565b600080600080608085870312156136db576136da612ff8565b5b60006136e98782880161324e565b94505060206136fa8782880161324e565b935050604061370b87828801613199565b925050606085013567ffffffffffffffff81111561372c5761372b612ffd565b5b61373887828801613693565b91505092959194509250565b6000806000806040858703121561375e5761375d612ff8565b5b600085013567ffffffffffffffff81111561377c5761377b612ffd565b5b613788878288016132b2565b9450945050602085013567ffffffffffffffff8111156137ab576137aa612ffd565b5b6137b7878288016132b2565b925092505092959194509250565b600080604083850312156137dc576137db612ff8565b5b60006137ea8582860161324e565b92505060206137fb8582860161324e565b9150509250929050565b600081519050919050565b600082825260208201905092915050565b6000819050602082019050919050565b600082825260208201905092915050565b600061384d826130bd565b6138578185613831565b93506138678185602086016130d9565b6138708161310c565b840191505092915050565b60006138878383613842565b905092915050565b6000602082019050919050565b60006138a782613805565b6138b18185613810565b9350836020820285016138c385613821565b8060005b858110156138ff57848403895281516138e0858261387b565b94506138eb8361388f565b925060208a019950506001810190506138c7565b50829750879550505050505092915050565b6000602082019050818103600083015261392b818461389c565b905092915050565b7f4e487b7100000000000000000000000000000000000000000000000000000000600052602260045260246000fd5b6000600282049050600182168061397a57607f821691505b6020821081141561398e5761398d613933565b5b50919050565b7f4552433732313a20617070726f76656420717565727920666f72206e6f6e657860008201527f697374656e7420746f6b656e0000000000000000000000000000000000000000602082015250565b60006139f0602c836130c8565b91506139fb82613994565b604082019050919050565b60006020820190508181036000830152613a1f816139e3565b9050919050565b7f4552433732313a20617070726f76616c20746f2063757272656e74206f776e6560008201527f7200000000000000000000000000000000000000000000000000000000000000602082015250565b6000613a826021836130c8565b9150613a8d82613a26565b604082019050919050565b60006020820190508181036000830152613ab181613a75565b9050919050565b7f4552433732313a20617070726f76652063616c6c6572206973206e6f74206f7760008201527f6e6572206e6f7220617070726f76656420666f7220616c6c0000000000000000602082015250565b6000613b146038836130c8565b9150613b1f82613ab8565b604082019050919050565b60006020820190508181036000830152613b4381613b07565b9050919050565b600081905092915050565b6000613b618385613b4a565b9350613b6e838584613459565b82840190509392505050565b6000613b87828486613b55565b91508190509392505050565b7f4552433732313a207472616e736665722063616c6c6572206973206e6f74206f60008201527f776e6572206e6f7220617070726f766564000000000000000000000000000000602082015250565b6000613bef6031836130c8565b9150613bfa82613b93565b604082019050919050565b60006020820190508181036000830152613c1e81613be2565b9050919050565b600081905092915050565b50565b6000613c40600083613c25565b9150613c4b82613c30565b600082019050919050565b6000613c6182613c33565b9150819050919050565b7f4661696c656420746f207769746864726177204d617469630000000000000000600082015250565b6000613ca16018836130c8565b9150613cac82613c6b565b602082019050919050565b60006020820190508181036000830152613cd081613c94565b9050919050565b7f4552433732313a206f776e657220717565727920666f72206e6f6e657869737460008201527f656e7420746f6b656e0000000000000000000000000000000000000000000000602082015250565b6000613d336029836130c8565b9150613d3e82613cd7565b604082019050919050565b60006020820190508181036000830152613d6281613d26565b9050919050565b7f4552433732313a2062616c616e636520717565727920666f7220746865207a6560008201527f726f206164647265737300000000000000000000000000000000000000000000602082015250565b6000613dc5602a836130c8565b9150613dd082613d69565b604082019050919050565b60006020820190508181036000830152613df481613db8565b9050919050565b7f45524337323155524953746f726167653a2055524920717565727920666f722060008201527f6e6f6e6578697374656e7420746f6b656e000000000000000000000000000000602082015250565b6000613e576031836130c8565b9150613e6282613dfb565b604082019050919050565b60006020820190508181036000830152613e8681613e4a565b9050919050565b6000613e98826130bd565b613ea28185613b4a565b9350613eb28185602086016130d9565b80840191505092915050565b6000613eca8285613e8d565b9150613ed68284613e8d565b91508190509392505050565b6000613eee83856130c8565b9350613efb838584613459565b613f048361310c565b840190509392505050565b60006020820190508181036000830152613f2a818486613ee2565b90509392505050565b7f2e00000000000000000000000000000000000000000000000000000000000000600082015250565b6000613f69600183613b4a565b9150613f7482613f33565b600182019050919050565b60008190508160005260206000209050919050565b60008154613fa181613962565b613fab8186613b4a565b94506001821660008114613fc65760018114613fd75761400a565b60ff1983168652818601935061400a565b613fe085613f7f565b60005b8381101561400257815481890152600182019150602081019050613fe3565b838801955050505b50505092915050565b6000614020828587613b55565b915061402b82613f5c565b91506140378284613f94565b9150819050949350505050565b60006140508286613f94565b915061405c8285613e8d565b91506140688284613f94565b9150819050949350505050565b7f7b226e616d65223a202200000000000000000000000000000000000000000000600082015250565b60006140ab600a83613b4a565b91506140b682614075565b600a82019050919050565b7f222c20226465736372697074696f6e223a20224120646f6d61696e206f6e207460008201527f6865204d617966616972206e616d652073657276696365222c2022696d61676560208201527f223a2022646174613a696d6167652f7376672b786d6c3b6261736536342c0000604082015250565b6000614143605e83613b4a565b915061414e826140c1565b605e82019050919050565b7f222c226c656e677468223a220000000000000000000000000000000000000000600082015250565b600061418f600c83613b4a565b915061419a82614159565b600c82019050919050565b7f227d000000000000000000000000000000000000000000000000000000000000600082015250565b60006141db600283613b4a565b91506141e6826141a5565b600282019050919050565b60006141fc8261409e565b91506142088286613e8d565b915061421382614136565b915061421f8285613e8d565b915061422a82614182565b91506142368284613e8d565b9150614241826141ce565b9150819050949350505050565b7f646174613a6170706c69636174696f6e2f6a736f6e3b6261736536342c000000600082015250565b6000614284601d83613b4a565b915061428f8261424e565b601d82019050919050565b60006142a582614277565b91506142b18284613e8d565b915081905092915050565b7f4e487b7100000000000000000000000000000000000000000000000000000000600052603260045260246000fd5b7f4e487b7100000000000000000000000000000000000000000000000000000000600052601160045260246000fd5b600061432582613178565b91507fffffffffffffffffffffffffffffffffffffffffffffffffffffffffffffffff821415614358576143576142eb565b5b600182019050919050565b6000604082019050818103600083015261437d818561311d565b90508181036020830152614391818461311d565b90509392505050565b7f4552433732313a206f70657261746f7220717565727920666f72206e6f6e657860008201527f697374656e7420746f6b656e0000000000000000000000000000000000000000602082015250565b60006143f6602c836130c8565b91506144018261439a565b604082019050919050565b60006020820190508181036000830152614425816143e9565b9050919050565b7f4552433732313a207472616e736665722066726f6d20696e636f72726563742060008201527f6f776e6572000000000000000000000000000000000000000000000000000000602082015250565b60006144886025836130c8565b91506144938261442c565b604082019050919050565b600060208201905081810360008301526144b78161447b565b9050919050565b7f4552433732313a207472616e7366657220746f20746865207a65726f2061646460008201527f7265737300000000000000000000000000000000000000000000000000000000602082015250565b600061451a6024836130c8565b9150614525826144be565b604082019050919050565b600060208201905081810360008301526145498161450d565b9050919050565b600061455b82613178565b915061456683613178565b925082821015614579576145786142eb565b5b828203905092915050565b600061458f82613178565b915061459a83613178565b9250827fffffffffffffffffffffffffffffffffffffffffffffffffffffffffffffffff038211156145cf576145ce6142eb565b5b828201905092915050565b7f4552433732313a20617070726f766520746f2063616c6c657200000000000000600082015250565b60006146106019836130c8565b915061461b826145da565b602082019050919050565b6000602082019050818103600083015261463f81614603565b9050919050565b7f4552433732313a207472616e7366657220746f206e6f6e20455243373231526560008201527f63656976657220696d706c656d656e7465720000000000000000000000000000602082015250565b60006146a26032836130c8565b91506146ad82614646565b604082019050919050565b600060208201905081810360008301526146d181614695565b9050919050565b7f4552433732314d657461646174613a2055524920717565727920666f72206e6f60008201527f6e6578697374656e7420746f6b656e0000000000000000000000000000000000602082015250565b6000614734602f836130c8565b915061473f826146d8565b604082019050919050565b6000602082019050818103600083015261476381614727565b9050919050565b7f4e487b7100000000000000000000000000000000000000000000000000000000600052601260045260246000fd5b60006147a482613178565b91506147af83613178565b9250826147bf576147be61476a565b5b828204905092915050565b60006147d582613178565b91506147e083613178565b9250826147f0576147ef61476a565b5b828206905092915050565b60006080820190508181036000830152614815818761311d565b90508181036020830152614829818661311d565b9050818103604083015261483d818561311d565b905061484c606083018461354e565b95945050505050565b600061486082613178565b915061486b83613178565b9250817fffffffffffffffffffffffffffffffffffffffffffffffffffffffffffffffff04831182151516156148a4576148a36142eb565b5b828202905092915050565b7f45524337323155524953746f726167653a2055524920736574206f66206e6f6e60008201527f6578697374656e7420746f6b656e000000000000000000000000000000000000602082015250565b600061490b602e836130c8565b9150614916826148af565b604082019050919050565b6000602082019050818103600083015261493a816148fe565b9050919050565b6000606082019050818103600083015261495b818661311d565b905061496a602083018561354e565b818103604083015261497c818461311d565b9050949350505050565b600081519050919050565b600082825260208201905092915050565b60006149ad82614986565b6149b78185614991565b93506149c78185602086016130d9565b6149d08161310c565b840191505092915050565b60006080820190506149f0600083018761320d565b6149fd602083018661320d565b614a0a604083018561354e565b8181036060830152614a1c81846149a2565b905095945050505050565b600081519050614a368161302e565b92915050565b600060208284031215614a5257614a51612ff8565b5b6000614a6084828501614a27565b91505092915050565b7f4552433732313a206d696e7420746f20746865207a65726f2061646472657373600082015250565b6000614a9f6020836130c8565b9150614aaa82614a69565b602082019050919050565b60006020820190508181036000830152614ace81614a92565b9050919050565b7f4552433732313a20746f6b656e20616c7265616479206d696e74656400000000600082015250565b6000614b0b601c836130c8565b9150614b1682614ad5565b602082019050919050565b60006020820190508181036000830152614b3a81614afe565b905091905056fe0a2d2d2d2d2d2d2d2d2d2d2d2d2d2d2d2d2d2d2d2d2d2d2d2d2d2d2d2d2d2d2d2d2d2d2d2d2d2d2d2d2d2d2d2d2d2d2d2d2d2d2d2d2d2d2d2d5265676973746572696e672025732e2573206f6e2074686520636f6e7472616374207769746820746f6b656e49442025642d2d2d2d2d2d2d2d2d2d2d2d2d2d2d2d2d2d2d2d2d2d2d2d2d2d2d2d2d2d2d2d2d2d2d2d2d2d2d2d2d2d2d2d2d2d2d2d2d2d2d2d2d2d2d2d0a4142434445464748494a4b4c4d4e4f505152535455565758595a6162636465666768696a6b6c6d6e6f707172737475767778797a303132333435363738392b2fa2646970667358221220fbd49a3be7cfbc33716ba6690eb709442c91cab22a17e6fb134477c5ba277e0e64736f6c634300080a00333c73766720786d6c6e733d22687474703a2f2f7777772e77332e6f72672f323030302f737667222077696474683d2232373022206865696768743d22323730222066696c6c3d226e6f6e65223e3c706174682066696c6c3d2275726c282342292220643d224d302030683237307632373048307a222f3e3c646566733e3c66696c7465722069643d22412220636f6c6f722d696e746572706f6c6174696f6e2d66696c746572733d2273524742222066696c746572556e6974733d227573657253706163654f6e55736522206865696768743d22323730222077696474683d22323730223e3c666544726f70536861646f772064783d2230222064793d22312220737464446576696174696f6e3d22322220666c6f6f642d6f7061636974793d222e323235222077696474683d223230302522206865696768743d2232303025222f3e3c2f66696c7465723e3c2f646566733e3c7061746820643d224d37322e3836332034322e393439632d2e3636382d2e3338372d312e3432362d2e35392d322e3139372d2e3539732d312e3532392e3230342d322e3139372e35396c2d31302e30383120362e3033322d362e383520332e3933342d31302e30383120362e303332632d2e3636382e3338372d312e3432362e35392d322e3139372e3539732d312e3532392d2e3230342d322e3139372d2e35396c2d382e3031332d342e37323161342e353220342e35322030203020312d312e3538392d312e363136632d2e3338342d2e3636352d2e3539342d312e3431382d2e3630382d322e313837762d392e3331632d2e3031332d2e3737352e3138352d312e3533382e3537322d322e32303861342e323520342e323520302030203120312e3632352d312e3539356c372e3838342d342e3539632e3636382d2e33383720312e3432362d2e353920322e3139372d2e353973312e3532392e32303420322e3139372e35396c372e38383420342e353961342e353220342e353220302030203120312e35383920312e363136632e3338342e3636352e35393420312e3431382e36303820322e31383776362e3033326c362e38352d342e303635762d362e303332632e3031332d2e3737352d2e3138352d312e3533382d2e3537322d322e32303861342e323520342e32352030203020302d312e3632352d312e3539354c34312e3435362032342e3539632d2e3636382d2e3338372d312e3432362d2e35392d322e3139372d2e3539732d312e3532392e3230342d322e3139372e35396c2d31342e38363420382e36353561342e323520342e32352030203020302d312e36323520312e353935632d2e3338372e36372d2e35383520312e3433342d2e35373220322e3230387631372e343431632d2e3031332e3737352e31383520312e3533382e35373220322e32303861342e323520342e323520302030203020312e36323520312e3539356c31342e38363420382e363535632e3636382e33383720312e3432362e353920322e3139372e353973312e3532392d2e32303420322e3139372d2e35396c31302e3038312d352e39303120362e38352d342e3036352031302e3038312d352e393031632e3636382d2e33383720312e3432362d2e353920322e3139372d2e353973312e3532392e32303420322e3139372e35396c372e38383420342e353961342e353220342e353220302030203120312e35383920312e363136632e3338342e3636352e35393420312e3431382e36303820322e31383776392e333131632e3031332e3737352d2e31383520312e3533382d2e35373220322e32303861342e323520342e32352030203020312d312e36323520312e3539356c2d372e38383420342e373231632d2e3636382e3338372d312e3432362e35392d322e3139372e3539732d312e3532392d2e3230342d322e3139372d2e35396c2d372e3838342d342e353961342e353220342e35322030203020312d312e3538392d312e363136632d2e3338352d2e3636352d2e3539342d312e3431382d2e3630382d322e313837762d362e3033326c2d362e383520342e30363576362e303332632d2e3031332e3737352e31383520312e3533382e35373220322e32303861342e323520342e323520302030203020312e36323520312e3539356c31342e38363420382e363535632e3636382e33383720312e3432362e353920322e3139372e353973312e3532392d2e32303420322e3139372d2e35396c31342e3836342d382e363535632e3635372d2e33393420312e3230342d2e393520312e3538392d312e363136732e3539342d312e3431382e3630392d322e3138375635352e353338632e3031332d2e3737352d2e3138352d312e3533382d2e3537322d322e32303861342e323520342e32352030203020302d312e3632352d312e3539356c2d31342e3939332d382e3738367a222066696c6c3d2223666666222f3e3c646566733e3c6c696e6561724772616469656e742069643d2242222078313d2230222079313d2230222078323d22323730222079323d2232373022206772616469656e74556e6974733d227573657253706163654f6e557365223e3c73746f702073746f702d636f6c6f723d2223636235656565222f3e3c73746f70206f66667365743d2231222073746f702d636f6c6f723d2223306364376534222073746f702d6f7061636974793d222e3939222f3e3c2f6c696e6561724772616469656e743e3c2f646566733e3c7465787420783d2233322e352220793d223233312220666f6e742d73697a653d223237222066696c6c3d2223666666222066696c7465723d2275726c282341292220666f6e742d66616d696c793d22506c7573204a616b617274612053616e732c44656a6156752053616e732c4e6f746f20436f6c6f7220456d6f6a692c4170706c6520436f6c6f7220456d6f6a692c73616e732d73657269662220666f6e742d7765696768743d22626f6c64223e",
  "linkReferences": {},
  "deployedLinkReferences": {}
}